{
  "_format": "hh-sol-artifact-1",
  "contractName": "MyToke",
  "sourceName": "contracts/mynft.sol",
  "abi": [
    {
      "inputs": [],
      "stateMutability": "nonpayable",
      "type": "constructor"
    },
    {
      "anonymous": false,
      "inputs": [
        {
          "indexed": true,
          "internalType": "address",
          "name": "owner",
          "type": "address"
        },
        {
          "indexed": true,
          "internalType": "address",
          "name": "approved",
          "type": "address"
        },
        {
          "indexed": true,
          "internalType": "uint256",
          "name": "tokenId",
          "type": "uint256"
        }
      ],
      "name": "Approval",
      "type": "event"
    },
    {
      "anonymous": false,
      "inputs": [
        {
          "indexed": true,
          "internalType": "address",
          "name": "owner",
          "type": "address"
        },
        {
          "indexed": true,
          "internalType": "address",
          "name": "operator",
          "type": "address"
        },
        {
          "indexed": false,
          "internalType": "bool",
          "name": "approved",
          "type": "bool"
        }
      ],
      "name": "ApprovalForAll",
      "type": "event"
    },
    {
      "anonymous": false,
      "inputs": [
        {
          "indexed": true,
          "internalType": "address",
          "name": "from",
          "type": "address"
        },
        {
          "indexed": true,
          "internalType": "address",
          "name": "to",
          "type": "address"
        },
        {
          "indexed": true,
          "internalType": "uint256",
          "name": "tokenId",
          "type": "uint256"
        }
      ],
      "name": "Transfer",
      "type": "event"
    },
    {
      "inputs": [
        {
          "internalType": "address",
          "name": "to",
          "type": "address"
        },
        {
          "internalType": "uint256",
          "name": "tokenId",
          "type": "uint256"
        }
      ],
      "name": "approve",
      "outputs": [],
      "stateMutability": "nonpayable",
      "type": "function"
    },
    {
      "inputs": [
        {
          "internalType": "address",
          "name": "owner",
          "type": "address"
        }
      ],
      "name": "balanceOf",
      "outputs": [
        {
          "internalType": "uint256",
          "name": "",
          "type": "uint256"
        }
      ],
      "stateMutability": "view",
      "type": "function"
    },
    {
      "inputs": [
        {
          "internalType": "uint256",
          "name": "tokenId",
          "type": "uint256"
        }
      ],
      "name": "getApproved",
      "outputs": [
        {
          "internalType": "address",
          "name": "",
          "type": "address"
        }
      ],
      "stateMutability": "view",
      "type": "function"
    },
    {
      "inputs": [
        {
          "internalType": "address",
          "name": "owner",
          "type": "address"
        },
        {
          "internalType": "address",
          "name": "operator",
          "type": "address"
        }
      ],
      "name": "isApprovedForAll",
      "outputs": [
        {
          "internalType": "bool",
          "name": "",
          "type": "bool"
        }
      ],
      "stateMutability": "view",
      "type": "function"
    },
    {
      "inputs": [],
      "name": "name",
      "outputs": [
        {
          "internalType": "string",
          "name": "",
          "type": "string"
        }
      ],
      "stateMutability": "view",
      "type": "function"
    },
    {
      "inputs": [
        {
          "internalType": "uint256",
          "name": "tokenId",
          "type": "uint256"
        }
      ],
      "name": "ownerOf",
      "outputs": [
        {
          "internalType": "address",
          "name": "",
          "type": "address"
        }
      ],
      "stateMutability": "view",
      "type": "function"
    },
    {
      "inputs": [
        {
          "internalType": "address",
          "name": "to",
          "type": "address"
        },
        {
          "internalType": "string",
          "name": "uri",
          "type": "string"
        }
      ],
      "name": "safeMint",
      "outputs": [],
      "stateMutability": "nonpayable",
      "type": "function"
    },
    {
      "inputs": [
        {
          "internalType": "address",
          "name": "from",
          "type": "address"
        },
        {
          "internalType": "address",
          "name": "to",
          "type": "address"
        },
        {
          "internalType": "uint256",
          "name": "tokenId",
          "type": "uint256"
        }
      ],
      "name": "safeTransferFrom",
      "outputs": [],
      "stateMutability": "nonpayable",
      "type": "function"
    },
    {
      "inputs": [
        {
          "internalType": "address",
          "name": "from",
          "type": "address"
        },
        {
          "internalType": "address",
          "name": "to",
          "type": "address"
        },
        {
          "internalType": "uint256",
          "name": "tokenId",
          "type": "uint256"
        },
        {
          "internalType": "bytes",
          "name": "_data",
          "type": "bytes"
        }
      ],
      "name": "safeTransferFrom",
      "outputs": [],
      "stateMutability": "nonpayable",
      "type": "function"
    },
    {
      "inputs": [
        {
          "internalType": "address",
          "name": "operator",
          "type": "address"
        },
        {
          "internalType": "bool",
          "name": "approved",
          "type": "bool"
        }
      ],
      "name": "setApprovalForAll",
      "outputs": [],
      "stateMutability": "nonpayable",
      "type": "function"
    },
    {
      "inputs": [
        {
          "internalType": "bytes4",
          "name": "interfaceId",
          "type": "bytes4"
        }
      ],
      "name": "supportsInterface",
      "outputs": [
        {
          "internalType": "bool",
          "name": "",
          "type": "bool"
        }
      ],
      "stateMutability": "view",
      "type": "function"
    },
    {
      "inputs": [],
      "name": "symbol",
      "outputs": [
        {
          "internalType": "string",
          "name": "",
          "type": "string"
        }
      ],
      "stateMutability": "view",
      "type": "function"
    },
    {
      "inputs": [
        {
          "internalType": "uint256",
          "name": "tokenId",
          "type": "uint256"
        }
      ],
      "name": "tokenURI",
      "outputs": [
        {
          "internalType": "string",
          "name": "",
          "type": "string"
        }
      ],
      "stateMutability": "view",
      "type": "function"
    },
    {
      "inputs": [
        {
          "internalType": "address",
          "name": "from",
          "type": "address"
        },
        {
          "internalType": "address",
          "name": "to",
          "type": "address"
        },
        {
          "internalType": "uint256",
          "name": "tokenId",
          "type": "uint256"
        }
      ],
      "name": "transferFrom",
      "outputs": [],
      "stateMutability": "nonpayable",
      "type": "function"
    }
  ],
  "bytecode": "0x60806040523480156200001157600080fd5b506040518060400160405280600781526020017f4d79546f6b656e000000000000000000000000000000000000000000000000008152506040518060400160405280600381526020017f4d544b0000000000000000000000000000000000000000000000000000000000815250816000908051906020019062000096929190620000b8565b508060019080519060200190620000af929190620000b8565b505050620001cd565b828054620000c69062000168565b90600052602060002090601f016020900481019282620000ea576000855562000136565b82601f106200010557805160ff191683800117855562000136565b8280016001018555821562000136579182015b828111156200013557825182559160200191906001019062000118565b5b50905062000145919062000149565b5090565b5b80821115620001645760008160009055506001016200014a565b5090565b600060028204905060018216806200018157607f821691505b602082108114156200019857620001976200019e565b5b50919050565b7f4e487b7100000000000000000000000000000000000000000000000000000000600052602260045260246000fd5b612c0a80620001dd6000396000f3fe608060405234801561001057600080fd5b50600436106100ea5760003560e01c806370a082311161008c578063b88d4fde11610066578063b88d4fde1461025b578063c87b56dd14610277578063d204c45e146102a7578063e985e9c5146102c3576100ea565b806370a08231146101f157806395d89b4114610221578063a22cb4651461023f576100ea565b8063095ea7b3116100c8578063095ea7b31461016d57806323b872dd1461018957806342842e0e146101a55780636352211e146101c1576100ea565b806301ffc9a7146100ef57806306fdde031461011f578063081812fc1461013d575b600080fd5b61010960048036038101906101049190611cb7565b6102f3565b60405161011691906120bd565b60405180910390f35b6101276103d5565b60405161013491906120d8565b60405180910390f35b61015760048036038101906101529190611d09565b610467565b6040516101649190612056565b60405180910390f35b61018760048036038101906101829190611c7b565b6104ec565b005b6101a3600480360381019061019e9190611b21565b610604565b005b6101bf60048036038101906101ba9190611b21565b610664565b005b6101db60048036038101906101d69190611d09565b610684565b6040516101e89190612056565b60405180910390f35b61020b60048036038101906102069190611abc565b610736565b60405161021891906122fa565b60405180910390f35b6102296107ee565b60405161023691906120d8565b60405180910390f35b61025960048036038101906102549190611beb565b610880565b005b61027560048036038101906102709190611b70565b610896565b005b610291600480360381019061028c9190611d09565b6108f8565b60405161029e91906120d8565b60405180910390f35b6102c160048036038101906102bc9190611c27565b61090a565b005b6102dd60048036038101906102d89190611ae5565b61093b565b6040516102ea91906120bd565b60405180910390f35b60007f80ac58cd000000000000000000000000000000000000000000000000000000007bffffffffffffffffffffffffffffffffffffffffffffffffffffffff1916827bffffffffffffffffffffffffffffffffffffffffffffffffffffffff191614806103be57507f5b5e139f000000000000000000000000000000000000000000000000000000007bffffffffffffffffffffffffffffffffffffffffffffffffffffffff1916827bffffffffffffffffffffffffffffffffffffffffffffffffffffffff1916145b806103ce57506103cd826109cf565b5b9050919050565b6060600080546103e490612550565b80601f016020809104026020016040519081016040528092919081815260200182805461041090612550565b801561045d5780601f106104325761010080835404028352916020019161045d565b820191906000526020600020905b81548152906001019060200180831161044057829003601f168201915b5050505050905090565b600061047282610a39565b6104b1576040517f08c379a00000000000000000000000000000000000000000000000000000000081526004016104a89061227a565b60405180910390fd5b6004600083815260200190815260200160002060009054906101000a900473ffffffffffffffffffffffffffffffffffffffff169050919050565b60006104f782610684565b90508073ffffffffffffffffffffffffffffffffffffffff168373ffffffffffffffffffffffffffffffffffffffff161415610568576040517f08c379a000000000000000000000000000000000000000000000000000000000815260040161055f906122ba565b60405180910390fd5b8073ffffffffffffffffffffffffffffffffffffffff16610587610aa5565b73ffffffffffffffffffffffffffffffffffffffff1614806105b657506105b5816105b0610aa5565b61093b565b5b6105f5576040517f08c379a00000000000000000000000000000000000000000000000000000000081526004016105ec906121ba565b60405180910390fd5b6105ff8383610aad565b505050565b61061561060f610aa5565b82610b66565b610654576040517f08c379a000000000000000000000000000000000000000000000000000000000815260040161064b906122da565b60405180910390fd5b61065f838383610c44565b505050565b61067f83838360405180602001604052806000815250610896565b505050565b6000806002600084815260200190815260200160002060009054906101000a900473ffffffffffffffffffffffffffffffffffffffff169050600073ffffffffffffffffffffffffffffffffffffffff168173ffffffffffffffffffffffffffffffffffffffff16141561072d576040517f08c379a0000000000000000000000000000000000000000000000000000000008152600401610724906121fa565b60405180910390fd5b80915050919050565b60008073ffffffffffffffffffffffffffffffffffffffff168273ffffffffffffffffffffffffffffffffffffffff1614156107a7576040517f08c379a000000000000000000000000000000000000000000000000000000000815260040161079e906121da565b60405180910390fd5b600360008373ffffffffffffffffffffffffffffffffffffffff1673ffffffffffffffffffffffffffffffffffffffff168152602001908152602001600020549050919050565b6060600180546107fd90612550565b80601f016020809104026020016040519081016040528092919081815260200182805461082990612550565b80156108765780601f1061084b57610100808354040283529160200191610876565b820191906000526020600020905b81548152906001019060200180831161085957829003601f168201915b5050505050905090565b61089261088b610aa5565b8383610eab565b5050565b6108a76108a1610aa5565b83610b66565b6108e6576040517f08c379a00000000000000000000000000000000000000000000000000000000081526004016108dd906122da565b60405180910390fd5b6108f284848484611018565b50505050565b606061090382611074565b9050919050565b600061091660076111c6565b905061092260076111d4565b61092c83826111ea565b6109368183611208565b505050565b6000600560008473ffffffffffffffffffffffffffffffffffffffff1673ffffffffffffffffffffffffffffffffffffffff16815260200190815260200160002060008373ffffffffffffffffffffffffffffffffffffffff1673ffffffffffffffffffffffffffffffffffffffff16815260200190815260200160002060009054906101000a900460ff16905092915050565b60007f01ffc9a7000000000000000000000000000000000000000000000000000000007bffffffffffffffffffffffffffffffffffffffffffffffffffffffff1916827bffffffffffffffffffffffffffffffffffffffffffffffffffffffff1916149050919050565b60008073ffffffffffffffffffffffffffffffffffffffff166002600084815260200190815260200160002060009054906101000a900473ffffffffffffffffffffffffffffffffffffffff1673ffffffffffffffffffffffffffffffffffffffff1614159050919050565b600033905090565b816004600083815260200190815260200160002060006101000a81548173ffffffffffffffffffffffffffffffffffffffff021916908373ffffffffffffffffffffffffffffffffffffffff160217905550808273ffffffffffffffffffffffffffffffffffffffff16610b2083610684565b73ffffffffffffffffffffffffffffffffffffffff167f8c5be1e5ebec7d5bd14f71427d1e84f3dd0314c0f7b2291e5b200ac8c7c3b92560405160405180910390a45050565b6000610b7182610a39565b610bb0576040517f08c379a0000000000000000000000000000000000000000000000000000000008152600401610ba79061219a565b60405180910390fd5b6000610bbb83610684565b90508073ffffffffffffffffffffffffffffffffffffffff168473ffffffffffffffffffffffffffffffffffffffff161480610c2a57508373ffffffffffffffffffffffffffffffffffffffff16610c1284610467565b73ffffffffffffffffffffffffffffffffffffffff16145b80610c3b5750610c3a818561093b565b5b91505092915050565b8273ffffffffffffffffffffffffffffffffffffffff16610c6482610684565b73ffffffffffffffffffffffffffffffffffffffff1614610cba576040517f08c379a0000000000000000000000000000000000000000000000000000000008152600401610cb19061211a565b60405180910390fd5b600073ffffffffffffffffffffffffffffffffffffffff168273ffffffffffffffffffffffffffffffffffffffff161415610d2a576040517f08c379a0000000000000000000000000000000000000000000000000000000008152600401610d219061215a565b60405180910390fd5b610d3583838361127c565b610d40600082610aad565b6001600360008573ffffffffffffffffffffffffffffffffffffffff1673ffffffffffffffffffffffffffffffffffffffff1681526020019081526020016000206000828254610d909190612466565b925050819055506001600360008473ffffffffffffffffffffffffffffffffffffffff1673ffffffffffffffffffffffffffffffffffffffff1681526020019081526020016000206000828254610de791906123df565b92505081905550816002600083815260200190815260200160002060006101000a81548173ffffffffffffffffffffffffffffffffffffffff021916908373ffffffffffffffffffffffffffffffffffffffff160217905550808273ffffffffffffffffffffffffffffffffffffffff168473ffffffffffffffffffffffffffffffffffffffff167fddf252ad1be2c89b69c2b068fc378daa952ba7f163c4a11628f55a4df523b3ef60405160405180910390a4610ea6838383611281565b505050565b8173ffffffffffffffffffffffffffffffffffffffff168373ffffffffffffffffffffffffffffffffffffffff161415610f1a576040517f08c379a0000000000000000000000000000000000000000000000000000000008152600401610f119061217a565b60405180910390fd5b80600560008573ffffffffffffffffffffffffffffffffffffffff1673ffffffffffffffffffffffffffffffffffffffff16815260200190815260200160002060008473ffffffffffffffffffffffffffffffffffffffff1673ffffffffffffffffffffffffffffffffffffffff16815260200190815260200160002060006101000a81548160ff0219169083151502179055508173ffffffffffffffffffffffffffffffffffffffff168373ffffffffffffffffffffffffffffffffffffffff167f17307eab39ab6107e8899845ad3d59bd9653f200f220920489ca2b5937696c318360405161100b91906120bd565b60405180910390a3505050565b611023848484610c44565b61102f84848484611286565b61106e576040517f08c379a0000000000000000000000000000000000000000000000000000000008152600401611065906120fa565b60405180910390fd5b50505050565b606061107f82610a39565b6110be576040517f08c379a00000000000000000000000000000000000000000000000000000000081526004016110b59061225a565b60405180910390fd5b60006006600084815260200190815260200160002080546110de90612550565b80601f016020809104026020016040519081016040528092919081815260200182805461110a90612550565b80156111575780601f1061112c57610100808354040283529160200191611157565b820191906000526020600020905b81548152906001019060200180831161113a57829003601f168201915b50505050509050600061116861141d565b905060008151141561117e5781925050506111c1565b6000825111156111b357808260405160200161119b929190612032565b604051602081830303815290604052925050506111c1565b6111bc84611434565b925050505b919050565b600081600001549050919050565b6001816000016000828254019250508190555050565b6112048282604051806020016040528060008152506114db565b5050565b61121182610a39565b611250576040517f08c379a00000000000000000000000000000000000000000000000000000000081526004016112479061221a565b60405180910390fd5b806006600084815260200190815260200160002090805190602001906112779291906118e0565b505050565b505050565b505050565b60006112a78473ffffffffffffffffffffffffffffffffffffffff16611536565b15611410578373ffffffffffffffffffffffffffffffffffffffff1663150b7a026112d0610aa5565b8786866040518563ffffffff1660e01b81526004016112f29493929190612071565b602060405180830381600087803b15801561130c57600080fd5b505af192505050801561133d57506040513d601f19601f8201168201806040525081019061133a9190611ce0565b60015b6113c0573d806000811461136d576040519150601f19603f3d011682016040523d82523d6000602084013e611372565b606091505b506000815114156113b8576040517f08c379a00000000000000000000000000000000000000000000000000000000081526004016113af906120fa565b60405180910390fd5b805181602001fd5b63150b7a0260e01b7bffffffffffffffffffffffffffffffffffffffffffffffffffffffff1916817bffffffffffffffffffffffffffffffffffffffffffffffffffffffff191614915050611415565b600190505b949350505050565b606060405180602001604052806000815250905090565b606061143f82610a39565b61147e576040517f08c379a00000000000000000000000000000000000000000000000000000000081526004016114759061229a565b60405180910390fd5b600061148861141d565b905060008151116114a857604051806020016040528060008152506114d3565b806114b284611559565b6040516020016114c3929190612032565b6040516020818303038152906040525b915050919050565b6114e58383611706565b6114f26000848484611286565b611531576040517f08c379a0000000000000000000000000000000000000000000000000000000008152600401611528906120fa565b60405180910390fd5b505050565b6000808273ffffffffffffffffffffffffffffffffffffffff163b119050919050565b606060008214156115a1576040518060400160405280600181526020017f30000000000000000000000000000000000000000000000000000000000000008152509050611701565b600082905060005b600082146115d35780806115bc906125b3565b915050600a826115cc9190612435565b91506115a9565b60008167ffffffffffffffff811115611615577f4e487b7100000000000000000000000000000000000000000000000000000000600052604160045260246000fd5b6040519080825280601f01601f1916602001820160405280156116475781602001600182028036833780820191505090505b5090505b600085146116fa576001826116609190612466565b9150600a8561166f91906125fc565b603061167b91906123df565b60f81b8183815181106116b7577f4e487b7100000000000000000000000000000000000000000000000000000000600052603260045260246000fd5b60200101907effffffffffffffffffffffffffffffffffffffffffffffffffffffffffffff1916908160001a905350600a856116f39190612435565b945061164b565b8093505050505b919050565b600073ffffffffffffffffffffffffffffffffffffffff168273ffffffffffffffffffffffffffffffffffffffff161415611776576040517f08c379a000000000000000000000000000000000000000000000000000000000815260040161176d9061223a565b60405180910390fd5b61177f81610a39565b156117bf576040517f08c379a00000000000000000000000000000000000000000000000000000000081526004016117b69061213a565b60405180910390fd5b6117cb6000838361127c565b6001600360008473ffffffffffffffffffffffffffffffffffffffff1673ffffffffffffffffffffffffffffffffffffffff168152602001908152602001600020600082825461181b91906123df565b92505081905550816002600083815260200190815260200160002060006101000a81548173ffffffffffffffffffffffffffffffffffffffff021916908373ffffffffffffffffffffffffffffffffffffffff160217905550808273ffffffffffffffffffffffffffffffffffffffff16600073ffffffffffffffffffffffffffffffffffffffff167fddf252ad1be2c89b69c2b068fc378daa952ba7f163c4a11628f55a4df523b3ef60405160405180910390a46118dc60008383611281565b5050565b8280546118ec90612550565b90600052602060002090601f01602090048101928261190e5760008555611955565b82601f1061192757805160ff1916838001178555611955565b82800160010185558215611955579182015b82811115611954578251825591602001919060010190611939565b5b5090506119629190611966565b5090565b5b8082111561197f576000816000905550600101611967565b5090565b60006119966119918461233a565b612315565b9050828152602081018484840111156119ae57600080fd5b6119b984828561250e565b509392505050565b60006119d46119cf8461236b565b612315565b9050828152602081018484840111156119ec57600080fd5b6119f784828561250e565b509392505050565b600081359050611a0e81612b78565b92915050565b600081359050611a2381612b8f565b92915050565b600081359050611a3881612ba6565b92915050565b600081519050611a4d81612ba6565b92915050565b600082601f830112611a6457600080fd5b8135611a74848260208601611983565b91505092915050565b600082601f830112611a8e57600080fd5b8135611a9e8482602086016119c1565b91505092915050565b600081359050611ab681612bbd565b92915050565b600060208284031215611ace57600080fd5b6000611adc848285016119ff565b91505092915050565b60008060408385031215611af857600080fd5b6000611b06858286016119ff565b9250506020611b17858286016119ff565b9150509250929050565b600080600060608486031215611b3657600080fd5b6000611b44868287016119ff565b9350506020611b55868287016119ff565b9250506040611b6686828701611aa7565b9150509250925092565b60008060008060808587031215611b8657600080fd5b6000611b94878288016119ff565b9450506020611ba5878288016119ff565b9350506040611bb687828801611aa7565b925050606085013567ffffffffffffffff811115611bd357600080fd5b611bdf87828801611a53565b91505092959194509250565b60008060408385031215611bfe57600080fd5b6000611c0c858286016119ff565b9250506020611c1d85828601611a14565b9150509250929050565b60008060408385031215611c3a57600080fd5b6000611c48858286016119ff565b925050602083013567ffffffffffffffff811115611c6557600080fd5b611c7185828601611a7d565b9150509250929050565b60008060408385031215611c8e57600080fd5b6000611c9c858286016119ff565b9250506020611cad85828601611aa7565b9150509250929050565b600060208284031215611cc957600080fd5b6000611cd784828501611a29565b91505092915050565b600060208284031215611cf257600080fd5b6000611d0084828501611a3e565b91505092915050565b600060208284031215611d1b57600080fd5b6000611d2984828501611aa7565b91505092915050565b611d3b8161249a565b82525050565b611d4a816124ac565b82525050565b6000611d5b8261239c565b611d6581856123b2565b9350611d7581856020860161251d565b611d7e816126e9565b840191505092915050565b6000611d94826123a7565b611d9e81856123c3565b9350611dae81856020860161251d565b611db7816126e9565b840191505092915050565b6000611dcd826123a7565b611dd781856123d4565b9350611de781856020860161251d565b80840191505092915050565b6000611e006032836123c3565b9150611e0b826126fa565b604082019050919050565b6000611e236025836123c3565b9150611e2e82612749565b604082019050919050565b6000611e46601c836123c3565b9150611e5182612798565b602082019050919050565b6000611e696024836123c3565b9150611e74826127c1565b604082019050919050565b6000611e8c6019836123c3565b9150611e9782612810565b602082019050919050565b6000611eaf602c836123c3565b9150611eba82612839565b604082019050919050565b6000611ed26038836123c3565b9150611edd82612888565b604082019050919050565b6000611ef5602a836123c3565b9150611f00826128d7565b604082019050919050565b6000611f186029836123c3565b9150611f2382612926565b604082019050919050565b6000611f3b602e836123c3565b9150611f4682612975565b604082019050919050565b6000611f5e6020836123c3565b9150611f69826129c4565b602082019050919050565b6000611f816031836123c3565b9150611f8c826129ed565b604082019050919050565b6000611fa4602c836123c3565b9150611faf82612a3c565b604082019050919050565b6000611fc7602f836123c3565b9150611fd282612a8b565b604082019050919050565b6000611fea6021836123c3565b9150611ff582612ada565b604082019050919050565b600061200d6031836123c3565b915061201882612b29565b604082019050919050565b61202c81612504565b82525050565b600061203e8285611dc2565b915061204a8284611dc2565b91508190509392505050565b600060208201905061206b6000830184611d32565b92915050565b60006080820190506120866000830187611d32565b6120936020830186611d32565b6120a06040830185612023565b81810360608301526120b28184611d50565b905095945050505050565b60006020820190506120d26000830184611d41565b92915050565b600060208201905081810360008301526120f28184611d89565b905092915050565b6000602082019050818103600083015261211381611df3565b9050919050565b6000602082019050818103600083015261213381611e16565b9050919050565b6000602082019050818103600083015261215381611e39565b9050919050565b6000602082019050818103600083015261217381611e5c565b9050919050565b6000602082019050818103600083015261219381611e7f565b9050919050565b600060208201905081810360008301526121b381611ea2565b9050919050565b600060208201905081810360008301526121d381611ec5565b9050919050565b600060208201905081810360008301526121f381611ee8565b9050919050565b6000602082019050818103600083015261221381611f0b565b9050919050565b6000602082019050818103600083015261223381611f2e565b9050919050565b6000602082019050818103600083015261225381611f51565b9050919050565b6000602082019050818103600083015261227381611f74565b9050919050565b6000602082019050818103600083015261229381611f97565b9050919050565b600060208201905081810360008301526122b381611fba565b9050919050565b600060208201905081810360008301526122d381611fdd565b9050919050565b600060208201905081810360008301526122f381612000565b9050919050565b600060208201905061230f6000830184612023565b92915050565b600061231f612330565b905061232b8282612582565b919050565b6000604051905090565b600067ffffffffffffffff821115612355576123546126ba565b5b61235e826126e9565b9050602081019050919050565b600067ffffffffffffffff821115612386576123856126ba565b5b61238f826126e9565b9050602081019050919050565b600081519050919050565b600081519050919050565b600082825260208201905092915050565b600082825260208201905092915050565b600081905092915050565b60006123ea82612504565b91506123f583612504565b9250827fffffffffffffffffffffffffffffffffffffffffffffffffffffffffffffffff0382111561242a5761242961262d565b5b828201905092915050565b600061244082612504565b915061244b83612504565b92508261245b5761245a61265c565b5b828204905092915050565b600061247182612504565b915061247c83612504565b92508282101561248f5761248e61262d565b5b828203905092915050565b60006124a5826124e4565b9050919050565b60008115159050919050565b60007fffffffff0000000000000000000000000000000000000000000000000000000082169050919050565b600073ffffffffffffffffffffffffffffffffffffffff82169050919050565b6000819050919050565b82818337600083830152505050565b60005b8381101561253b578082015181840152602081019050612520565b8381111561254a576000848401525b50505050565b6000600282049050600182168061256857607f821691505b6020821081141561257c5761257b61268b565b5b50919050565b61258b826126e9565b810181811067ffffffffffffffff821117156125aa576125a96126ba565b5b80604052505050565b60006125be82612504565b91507fffffffffffffffffffffffffffffffffffffffffffffffffffffffffffffffff8214156125f1576125f061262d565b5b600182019050919050565b600061260782612504565b915061261283612504565b9250826126225761262161265c565b5b828206905092915050565b7f4e487b7100000000000000000000000000000000000000000000000000000000600052601160045260246000fd5b7f4e487b7100000000000000000000000000000000000000000000000000000000600052601260045260246000fd5b7f4e487b7100000000000000000000000000000000000000000000000000000000600052602260045260246000fd5b7f4e487b7100000000000000000000000000000000000000000000000000000000600052604160045260246000fd5b6000601f19601f8301169050919050565b7f4552433732313a207472616e7366657220746f206e6f6e20455243373231526560008201527f63656976657220696d706c656d656e7465720000000000000000000000000000602082015250565b7f4552433732313a207472616e736665722066726f6d20696e636f72726563742060008201527f6f776e6572000000000000000000000000000000000000000000000000000000602082015250565b7f4552433732313a20746f6b656e20616c7265616479206d696e74656400000000600082015250565b7f4552433732313a207472616e7366657220746f20746865207a65726f2061646460008201527f7265737300000000000000000000000000000000000000000000000000000000602082015250565b7f4552433732313a20617070726f766520746f2063616c6c657200000000000000600082015250565b7f4552433732313a206f70657261746f7220717565727920666f72206e6f6e657860008201527f697374656e7420746f6b656e0000000000000000000000000000000000000000602082015250565b7f4552433732313a20617070726f76652063616c6c6572206973206e6f74206f7760008201527f6e6572206e6f7220617070726f76656420666f7220616c6c0000000000000000602082015250565b7f4552433732313a2062616c616e636520717565727920666f7220746865207a6560008201527f726f206164647265737300000000000000000000000000000000000000000000602082015250565b7f4552433732313a206f776e657220717565727920666f72206e6f6e657869737460008201527f656e7420746f6b656e0000000000000000000000000000000000000000000000602082015250565b7f45524337323155524953746f726167653a2055524920736574206f66206e6f6e60008201527f6578697374656e7420746f6b656e000000000000000000000000000000000000602082015250565b7f4552433732313a206d696e7420746f20746865207a65726f2061646472657373600082015250565b7f45524337323155524953746f726167653a2055524920717565727920666f722060008201527f6e6f6e6578697374656e7420746f6b656e000000000000000000000000000000602082015250565b7f4552433732313a20617070726f76656420717565727920666f72206e6f6e657860008201527f697374656e7420746f6b656e0000000000000000000000000000000000000000602082015250565b7f4552433732314d657461646174613a2055524920717565727920666f72206e6f60008201527f6e6578697374656e7420746f6b656e0000000000000000000000000000000000602082015250565b7f4552433732313a20617070726f76616c20746f2063757272656e74206f776e6560008201527f7200000000000000000000000000000000000000000000000000000000000000602082015250565b7f4552433732313a207472616e736665722063616c6c6572206973206e6f74206f60008201527f776e6572206e6f7220617070726f766564000000000000000000000000000000602082015250565b612b818161249a565b8114612b8c57600080fd5b50565b612b98816124ac565b8114612ba357600080fd5b50565b612baf816124b8565b8114612bba57600080fd5b50565b612bc681612504565b8114612bd157600080fd5b5056fea264697066735822122022cfabb163f246da72a17c1801a0d3fc31b8ef02b205f65ea50918c269ee3b3864736f6c63430008040033",
  "linkReferences": {},
  "deployedLinkReferences": {}
}